:040000000C944A0012
:100004000C9400000C9400000C9400000C9400006C
:100014000C9400000C9400000C9400000C9400005C
:100024000C9477000C9400000C9400000C940000D5
:100034000C9400000C9400000C9400000C9400003C
:100044000C9400000C9400000C9400000C9400002C
:100054000100FFFF0100000000000100010000009A
:100064000100000001000100000001000000010087
:1000740004000600540007006001580005006801F0
:100084006000050070016600070078016C00000044
:10009400F894EE27ECBBF1E0FBBFEBBFE5BF8DE0CE
:1000A400A2E0BB27ED938A95E9F780E094E0A0E60F
:1000B400ED930197E9F7E4E7F0E0859195910097D6
:1000C40061F0A591B59105901590BF01F0010590DF
:1000D4000D920197E1F7FB01F0CFEFE5EDBFE4E00E
:1000E400EEBFC0E6D1E00C9439010A92AA93EA93D8
:1000F400FA93EFB7EA93ECE0E2BFE1E0F0E0E41555
:10010400F50509F0ADC0F40131964F01082C09281A
:1001140009F084C0F301E130A0E0FA07E9F4E091CA
:100124006001E03011F4D89801C0D89AE0916201DE
:10013400E03011F4D99801C0D99AE0916401E0301B
:1001440011F4DA9801C0DA9AE0916601E03011F412
:10015400DB9801C0DB9A62C0E230A0E0FA07E9F460
:10016400E0916801E03011F4D89801C0D89AE09188
:100174006A01E03011F4D99801C0D99AE0916C0178
:10018400E03011F4DA9801C0DA9AE0916E01E030BF
:1001940011F4DB9801C0DB9A41C0E330A0E0FA0718
:1001A400E9F4E0917001E03011F4D89801C0D89AD4
:1001B400E0917201E03011F4D99801C0D99AE0912C
:1001C4007401E03011F4DA9801C0DA9AE091760112
:1001D400E03011F4DB9801C0DB9A20C0E430A0E0E9
:1001E400FA07E1F4E0917801E03011F4D89801C005
:1001F400D89AE0917A01E03011F4D99801C0D99AE3
:10020400E0917C01E03011F4DA9801C0DA9AE091CF
:100214007E01E03011F4DB9801C0DB9AE5E0F0E008
:10022400E815F9052CF4EAE0F0E0E815F9050CF41A
:1002340002C0E0E0EBBBEAE0F0E0E815F90581F488
:10024400EFEFFFEF4F01F30131963F01E5E0F0E0FE
:10025400E615F70529F4E1E0F0E03F0144245524D4
:10026400E991EFBFF991E991A99109901895442476
:100274005524E0E0E4BBE4E0E3BBEFEFEABBE0E0FD
:10028400EBBBE4E0E3BFECE0E2BFE1E0E9BF78947C
:1002940000240414050419F4E3B3E03009F006C0A3
:1002A400E1E0F0E02F01EFEFFFEF4F01F1CFFFCFDF
:00000001FF
