:040000000C94480014
:100004000C9400000C9400000C9400000C9400006C
:100014000C9400000C9400000C9400000C9400005C
:100024000C9475000C9400000C9400000C940000D7
:100034000C9400000C9400000C9400000C9400003C
:100044000C9400000C9400000C9400000C9400002C
:100054001027E80364000A000100001000011000EA
:1000640001004142434445464748494A4B4C4D4EA2
:100074004F505152535455565758595A80C01A002C
:100084006001660002007A0180000000F894EE2707
:10009400ECBBF1E0FBBFEBBFE5BF8DE0A2E0BB270B
:1000A400ED938A95E9F780E094E0A0E6ED9301975B
:1000B400E9F7E2E8F0E085919591009761F0A59168
:1000C400B59105901590BF01F00105900D9201972F
:1000D400E1F7FB01F0CFEFE5EDBFE4E0EEBFC0E6F2
:1000E400D1E00C94AB000A921A92FA926A937A9332
:1000F4008A939A93AA93BA93EA93FA93EFB7EA93FB
:10010400F20131962F01E4EFF1E0E415F50599F4DD
:10011400A0E6B1E0A60DB71DAC9168D0E9E1F0E02E
:10012400E615F70519F4E0E0E3BFE9BF44245524DC
:10013400F30131963F01E991EFBFF991E991B9914A
:10014400A9919991899179916991F990199009905E
:1001540018954424552466247724E1E0E3BFE0E0C5
:10016400E2BFECBFE1E0E9BFA4E154D0E0E0EA93F0
:10017400A0E023D07894FFCFFFCFAA93E2B3EF702F
:10018400AE2FE881E07FEA2BE2BB84E18A95F1F7A8
:10019400929A84E18A95F1F7929884E18A95F1F72D
:1001A40065C0AA93A881E9DFE881E295E883A88184
:1001B400E4DF88EC8A95F1F759C0AA93E881F0E06E
:1001C400E658FE4FE081A981AE0FEBDF998088806D
:1001D40022960895A2E00E943A01ACE0E2DFA1E099
:1001E4000E943A01E0E08E2E9E2E0895AA93A881E3
:1001F400AA3011F09B1440F0E0E0EA938394A82D18
:10020400DCDFA881AA3091F19394909AA881C9DF88
:1002140090982CC0AA93E1B3E06FE1BB8A9A889AC4
:10022400899A929890989198B880E881E058E093E0
:100234007C01E881E054E0937D01A4E1B0E00E94F8
:1002440048010E9440010E9440010E944001A0E236
:1002540094DF8CE291E00197F1F7A8E2A2DFA4E039
:10026400A0DFA5E89EDFA6E09CDFB4DF2196089519
:100274000E94D300A3E0B0E00C944801A0E30E94E4
:10028400BF008CE291E00197F1F70895109639F0E0
:1002940088EB9BE00197F1F7A8951197C9F70895AA
:00000001FF
