:100000000C943B000C9400000C9400000C94000035
:100010000C9400000C9474000C9400000C940000EC
:100020000C9468000C9400000C9400000C940000E8
:100030000C9400000C9400000C9400000C94000040
:100040000C9400000C9400000C9400000C94000030
:100050000C9400001027E80364000A00010000105F
:10006000000110000100256420487A0080C00200D1
:1000700072016C000000F894EE27ECBBF1E0FBBFCE
:10008000EBBFE5BF8DE0A2E0BB27ED938A95E9F7D2
:1000900080E094E0A0E6ED930197E9F7EEE6F0E06A
:1000A00085919591009761F0A591B5910590159076
:1000B000BF01F00105900D920197E1F7FB01F0CF30
:1000C000EFE5EDBFE4E0EEBFC0E6D1E00C94DA006E
:1000D000EA93FA93EFB7EA93F20131962F01E9918F
:1000E000EFBFF991E99118950A921A92FA926A93E0
:1000F0007A938A939A93AA93BA93EA93FA93EFB76F
:10010000EA93062C072819F4E1E0F0E03F01E1E072
:10011000F0E0E615F70541F40E944D03EA0FFB1FDE
:100120005F01E2E0F0E03F01E2E0F0E0E615F70514
:1001300099F50E944D03AE0FBF1FF201E0E0F0E021
:10014000EA0FFB1F4F01EA19FB096F0166277727AA
:10015000A0E0B2E18AE790E00E94CD03E093600165
:10016000F0936101E2E6F1E0FA93EA93E6E6F0E06B
:10017000FA93EA93E0916001F09161016627772795
:100180000E94ED0384E00E9400032896A2E6B1E0FD
:1001900083D0E3E0F0E03F01E991EFBFF991E9910D
:1001A000B991A9919991899179916991F990199051
:1001B000099018956624772444245524E0E0EFBD87
:1001C000E2ECEEBDE4E2E9BFA4E177D0E0E0EA933F
:1001D000A0E023D07894FFCFFFCFAA93E5B3EF70D0
:1001E000AE2FE881E07FEA2BE5BB84E18A95F1F749
:1001F000AA9A84E18A95F1F7AA9884E18A95F1F7A1
:1002000089C0AA93A881E9DFE881E295E883A88103
:10021000E4DF88EC8A95F1F77DC0AA93E881F0E0ED
:10022000EE58FE4FE081A981AE0FEBDFE981E0934C
:100230007601E881E093770122960895A2E00E947A
:100240005403ACE0DEDFA1E00E945403E0E0E09361
:100250007701E09376010895AA93A881AA3031F03E
:10026000E0917801A0917601AE1760F0E0E0EA93AA
:10027000A0917701AF5FA0937701CFDFA881AA306B
:1002800009F448C0E0917601EF5FE0937601A89A07
:10029000A881B7DFA8983EC0BA93AA931A93A98100
:1002A000BA81ED91A983BA831E2FE03019F0A12FF6
:1002B000D3DFF5CF188123960895AA93E4B3E06FB6
:1002C000E4BBA29AA09AA19AAA98A898A998E881B2
:1002D000E0937801E058E0937401E881E054E09302
:1002E0007501A4E1B0E00E948E030E945A030E94AF
:1002F0005A030E945A03A0E270DF8CE291E001975A
:10030000F1F7A8E27EDFA4E07CDFA5E87ADFA6E0D3
:1003100078DF94DF21960895BA93AA931A930A93EB
:10032000AA81BB8112960E94E503309759F1AA81F8
:10033000BB8114960E94E5038F01309761F0023073
:10034000E0E01E0798F0F80131978F01AA81BB8188
:100350001496ED93FC93AA81BB811296ED91FD91C9
:100360003196FE93EE933197AC81A083AA81BB8135
:100370000E94E503FF232AF0ED91FD913196FE9353
:10038000EE9306C0AA81BB81EFEFFFEFED93FC93E4
:100390001981088125960895BA93AA9326970E94F9
:1003A000F20310E0AC85BD85E0E0F0E0ED93FC9356
:1003B000EA89FB893196EA8BFB8B3197E4912E2FEA
:1003C000E03009F415C1E12FE03039F4253211F4A1
:1003D00011E002C00E9462030AC1E130A9F4253293
:1003E00019F40E94620302C112E040E000E02D32E5
:1003F00011F401E0FCC02B3211F44BE2F8C02032C2
:1004000011F440E2F4C002C0E23039F450E013E0ED
:10041000203311F40068EBC003C0E33009F0E7C0FB
:10042000203310F02A3308F007C0AAE05A9F502D5D
:10043000E22FE0535E0FDBC0E22FE33649F40E9467
:100440006903E889F989A481AA930E946F03CEC049
:10045000E33741F40E9469030E9475030E9434034C
:100460001E2F0AC0E03761F40E9469030E947503E1
:100470000E9440031E2F086002600F7730E034C0F6
:10048000E43611F0E93611F4046002C0E53731F4C6
:10049000E4E5F0E0EE83FF8315E00CC0E83511F4ED
:1004A000086003C0E83709F0A1C0EEE5F0E0EE8394
:1004B000FF8314E002FF14C00E9469030E947F03BF
:1004C000AB85AA233AF4EA85FB850E949C03EA8760
:1004D000FB874DE2403011F01F5F01C00B7F04C06D
:1004E0000E9469030E947F0300FD11C0151778F474
:1004F00007FF08C002FF04C00B7F242F115001C06A
:1005000020E301C020E20E9462035150EFCF312F5F
:1005100001FF17C03030A1F003FF06C0EE81FF815C
:100520002591EE83FF8305C0AE81BF812D91AE83FF
:10053000BF830E946203503009F051503150EACF1E
:100540004BC020E3EE81FF810E94E903E887F98731
:10055000EE81FF813296EE83FF83E885F985AA85D7
:10056000BB85AE17BF0750F02F5FA885B985EA8518
:10057000FB85EA1BFB0BEA87FB87EFCF2A3328F0CA
:1005800003FF02C0295F01C0295D04FD1AC02133A9
:1005900020F4A885B985119709F409C0531710F004
:1005A00000FF01C013C020E207FF0BC020E3006181
:1005B00002FF07C00B7F4A930E946F03503009F07F
:1005C00051500E946203503009F051503150A885BB
:1005D000B985129708F0B5CF00FF08C0503031F050
:1005E0005150E0E2EA930E946F03F8CF10E0E0CEB2
:1005F000AC85BD850E94E5030E94F90364960895C9
:10060000FF92F82E26970E94F4030E9487033097EA
:1006100019F4EFEFFFEF23C0DE0116960E94980356
:100620008D010E948703EE83FF83E0E0E887E9877E
:10063000DE011A960E9498030E94E503FA93EA935A
:100640001A930A93ECE8F1E0FA93EA93DE011A9622
:10065000A3DE9F01AE81BF81E0E0EC93F9010E942F
:10066000FB032A96FF900895BA93AA93A991B99192
:10067000EE27FF276D91662311F03196FBCF089589
:10068000BA93AA93AA27BB27E991F9910590002074
:1006900011F01196FBCFFD010895E7B5FE2FE0E0C4
:1006A000DF01E6B5F0E008950E940101A3E0B0E0AB
:1006B0000C948E03A0E30E94ED008CE291E0019780
:1006C000F1F708952A93AD85BE85EF85F8890995E0
:1006D0000895E889F9893497E88BF98B0895AD85F9
:1006E000BE85EF85F88909950895A889B98914967A
:1006F0000E94E503EE83FF83AE81BF810895A88940
:10070000B98914960E94E503EA87FB870895DE0104
:100710001C960E9498030E94E5030895109639F0F4
:1007200088EB9BE00197F1F7A8951197C9F7089519
:100730000024AF0DB01D0895F195E195F0400895A6
:10074000F09560957095E195FF4F6F4F7F4F08953D
:100750003F934F935F93002411244427552730E2A1
:10076000AA0FBB1F881F991F001C111C441F551F77
:100770000E1A1F0A460B570B28F40E0E1F1E461F9B
:10078000571F01C0A1603A9559F7FD01BC01D00186
:10079000CA015F914F913F91089504D0D9DF0EF4C3
:1007A000CFDF0895E89477FF02C0CADF689497FF0F
:1007B0000BC00024A095B095809590951196801D52
:1007C000901D00F8039400FA0895ED91FC911197A3
:1007D00008950590F491E02D08957A936A93FA9321
:1007E000EA9308955A934A933A932A931A930A9351
:1007F00008955D814C813B812A811981088108958A
:00000001FF
