:0C0000000C9436000C9400000C940000DE
:10000C000C9400000C9400000C9400000C94000064
:10001C000C9400000C9400000C9400000C94000054
:10002C000C9463000C9400000C9400000C940000E1
:10003C000C9400000C9400000C9400000C94000034
:10004C000C9400000C940000000006000300090052
:10005C000C0002000400540007006002560000006F
:10006C00F894EE27ECBBF1E0FBBFEBBFE5BF8DE0F6
:10007C00A2E0BB27ED938A95E9F780E098E0A0E633
:10008C00ED930197E9F7EEE5F0E0859195910097F6
:10009C0061F0A591B59105901590BF01F001059007
:1000AC000D920197E1F7FB01F0CFEFE5EDBFE8E032
:1000BC00EEBFC0E6D2E00C948500AA93BA93EA9303
:1000CC00FA93EFB7EA93E3E0F0E0E415F50514F4E6
:1000DC0044245524F20131962F013197A0E6B2E069
:1000EC00EE0FFF1FAE0FBF1FEC91EBBBE7EDE2BFB6
:1000FC00E991EFBFF991E991B991A9911895EFE0C8
:10010C00EABBE0E0EBBBA298AA9A7894E5E0E3BFE7
:10011C009A9904C0E7EDE2BFE1E0E9BFF9CFFFCF68
:00000001FF
