:080000000C942A000C9400008E
:100008000C9400000C9400000C9400000C94000068
:100018000C9400000C9400000C9400000C94000058
:100028000C9400000C9400000C9400000C94000048
:100038000C9400000C9400000C9400000C94000038
:100048000C9400000C9400000C940000F894EE2727
:10005800ECBBF1E0FBBFEBBFE5BF8DE0A2E0BB2747
:10006800ED938A95E9F780E094E0A0E6ED93019797
:10007800E9F7EFE5EDBFE4E0EEBFC0E6D1E00C94B0
:100088004500E0E0EABBEFEFE7BBC89B14C015D022
:100098001BD021D027D02DD033D039D0C79AA2E396
:1000A800B0E00E949200C79832D02AD022D01AD04D
:1000B80012D00AD002D0E9CFFFCFC09AA2E3B0E0B5
:1000C8000E949200C0980895C19AA2E3B0E00E94ED
:1000D8009200C1980895C29AA2E3B0E00E949200EB
:1000E800C2980895C39AA2E3B0E00E949200C39810
:1000F8000895C49AA2E3B0E00E949200C4980895BB
:10010800C59AA2E3B0E00E949200C5980895C69AE5
:10011800A2E3B0E00E949200C6980895109639F0C4
:1001280088EB9BE00197F1F7A8951197C9F7089517
:00000001FF
