:040000000C942E012D
:100004000C9400000C9400000C9400000C9400006C
:100014000C9400000C9400000C9400000C9400005C
:100024000C9400000C9400000C9400000C9400004C
:100034000C9400000C9400000C9400000C9400003C
:100044000C9400000C9400000C9400000C9400002C
:1000540005072060000000000000005F00000007AA
:10006400000700147F147F14242A7F2A1223130804
:10007400646236495522500005030000001C2241E9
:10008400000041221C00082A1C2A0808083E08080F
:100094000050300000080808080800303000002034
:1000A400100804023E5149453E00427F400042612F
:1000B4005149462141454B311814127F10274545BB
:1000C40045393C4A494930017109050336494949D2
:1000D40036064949291E003636000000563600000F
:1000E40000081422411414141414412214080002A8
:1000F40001510906324979413E7E1111117E7F4931
:100104004949363E414141227F4141221C7F4949B0
:1001140049417F090901013E414151327F080808E4
:100124007F00417F41002040413F017F081422416C
:100134007F404040407F0204027F7F0408107F3EDE
:100144004141413E7F090909063E4151215E7F0933
:10015400192946464949493101017F01013F40407F
:10016400403F1F2040201F7F2018207F6314081465
:10017400630304780403615149454300007F41410E
:10018400020408102041417F0000040201020440DF
:1001940040404040000102040020545454787F48F9
:1001A4004444383844444420384444487F38545400
:1001B4005418087E090102081454543C7F080404AE
:1001C4007800447D40002040443D00007F102844D6
:1001D40000417F40007C041804787C0804047838CB
:1001E400444444387C14141408081414187C7C08FF
:1001F4000404084854545420043F4440203C4040E4
:10020400207C1C2040201C3C4030403C44281028CA
:10021400440C5050503C4464544C44000836410053
:1002240000007F0000004136080002010204027F42
:100234004141417F000103070F1F3F7FFF005361CE
:100244006C616D0001002D4E414E00494E46000088
:100254000100800148020000F894EE27ECBBF1E0B5
:10026400FBBFEBBFE5BFF8E1F1BDE1BD8DE0A2E06E
:10027400BB27ED938A95E9F780E094E0A0E6ED933F
:100284000197E9F7E4E5F2E085919591009761F033
:10029400A591B59105901590BF01F00105900D92BF
:1002A4000197E1F7FB01F0CFEFE5EDBFE4E0EEBF2E
:1002B400C0E6D1E00C945E012697E0E0EABBEBBB1C
:1002C400E7BBE8BBE4BBE5BBE1BBE2BBE3BFE2BF2A
:1002D400ECBFEFBDEEBDEDBDECBDE7BDE6BDEBBDD6
:1002E400EABDE9BDE8BDE2BDE5BDE4BDE3BDE9BFEE
:1002F400E5BFE4BFEAB9E0E8E8B9E0E0E0BFE6B9A9
:10030400EDB9E6BFE4E5F0E0E883F983E0E0EA83F1
:10031400EB83EC83ED83DE018CD0E5E0EA93EA9392
:10032400A2E4B2E00E94C105FFCFFFCF0000909A83
:100334000000089590989498959808951A93F6DF7C
:1003440013B39098E12F19910895AA931A93E0E0BA
:10035400E4BB919A9298E981EF5F1E2F10FF02C0CF
:10036400949A01C0949811FF02C0959A01C095987F
:10037400E5DFE078E9F718810C94FC05AA93A981DC
:10038400E4DF0E9464060C94FC05E0917E01EA938C
:10039400E0917D01EF73E064AE2FF0DFE0917E0128
:1003A400EA93E0917F01E86BAE2FE8DF0895AA930A
:1003B400E981E0937D01E295EF70E695E695E0939F
:1003C4007E01E881E0937F01E0DF0C94FC05A091BD
:1003D4007D01AF5FA0937D01A03818F0E0E0E093C9
:1003E4007D01E0917D01EF7331F4E0917D01EA93A9
:1003F400A0917F01DCDF0895AA93A0917E01A5DF7F
:10040400929A0E94640621960895A0917E019DDF30
:10041400E0E0E4BB919A929A91DF0895AA93E9816E
:10042400EA93E9810E946D06F0DFAFDFEEDF0C9402
:10043400FC05BA93AA931A93889A899A8A9A8B9AF2
:10044400939A8C9A8D9A76DF9398A4E6B0E00E94F2
:10045400ED06939A10E0123040F41A93AFE38EDF66
:100464001A931395A0EC8ADFF6CFE1E0E0936001E4
:10047400E0E0E0936101E981FA813097A9F0A98174
:10048400BA810E940F07E0936401F093650112960C
:100494000E940F07E0937901F0937A01A981BA8150
:1004A40014960E940F070AC0E0E0F0E0E0936401B4
:1004B400F0936501E0937901F0937A01E0937B0175
:1004C400F0937C01E1E0E0936601E0936701E0933F
:1004D4006801EFEFE0936901E1E0E0937001E1E787
:1004E400F1E0FA93EA93EFEFEA93A8E0B0E00E9418
:1004F400E30504D0E1E018810C9443060E9436071A
:1005040000E030E0E0916101E03009F00FEF3830B5
:1005140078F4E0E0EA93A32F3F5F49DF10E0A12FD6
:100524001F5FA03820F4A02F0E947306F8CFEFCFEE
:10053400E0E0EA93A0E03BDFE0E0EA93A0E035D31B
:100544000E943D070C946206AA931A93ED81EA93E4
:10055400AD8164DF1E2F19DFE981E63011F0E73049
:1005640039F4EB81EA93AA810E94FE05EB8308C06B
:10057400E33021F4EB81E095EB8302C0E03021F419
:10058400EA81E0951E2302C0E23029F4EA81AB81BE
:10059400EA231E2B0EC0E13029F4EA81AB81EA2361
:1005A4001E2707C0E43029F4EA81E095AB81EA2BE9
:1005B4001E23A12F0E947306188126960895AA93DC
:1005C40023970E943407A889A03848F4AF85A03443
:1005D40030F4AE85A03019F0AD85A03009F4C9C15E
:1005E400EE85E887A889BB27EE850E947706A138A7
:1005F400E0E0BE0720F0A889E0E8EA1BEE872D853D
:10060400AF85BB27ED850E947706A134E0E0BE07E5
:1006140020F0AF85E0E4EA1BED87A985A53011F051
:100624000C946E03EC85E13009F4A3C1E33039F492
:10063400E0917B01F0917C01309709F49AC108851F
:10064400ED85E695E695E6953E2FE22FE77019F4E1
:10065400AD852A17E1F0A02FBB27E32F0E947B066C
:10066400AA85BB850E947F06269526952695532F3D
:100674005F935F5FE22FAF91EA1748F0102FE12FED
:100684001150E03019F00E948406F9CFF1CFAE8505
:100694000A1711F1EE85AA85BB85F0E00E947F065A
:1006A400ED85E77009F03F5F20E02F932F5FE32F84
:1006B400AF91AE1788F41E851F931F5FE02FAF9193
:1006C400AE1718F40E948406F7CFEE85AE81BF8181
:1006D400F0E00E947F06E9CFEF85E7703E2FED85BD
:1006E400E03011F40C94BB04EA85FB85EE83FF83B0
:1006F40010E00889303011F00C94E603AD85A83081
:1007040010F40C94E103E985E03011F0E33009F4CE
:1007140002C0E63009F402C0E73009F402C0E53053
:1007240009F402C0E83009F402C0E93021F40A9364
:10073400E8890E946D061F931F5FEE85AF91AE1787
:10074400B8F5A985A53061F460DE1FDE0E9491062C
:10075400FA93EA935ADEAE2F0E94450638DE27C08C
:10076400E985E83011F450E00EC0E93011F45FEF90
:100774000AC00E9491060E949A065E2FE985E6301F
:1007840011F0E73021F40E94A0065E2F06C0E3308A
:1007940011F4509502C0E03021F4A52F0E94730695
:1007A40006C00E94A406EFEFEA93AD85CDDEC3CF69
:1007B400EF85E85FEF87ED85E850ED87D1C05D8573
:1007C40020E0E0E0ED877AC0E32FAD85AE0FA930DD
:1007D40020F42D85E0E0ED8703C0E8E0E31B2E2F35
:1007E4003A93A22F0E94F3054E2FE985E530F1F4E8
:1007F4001F931F5FEE85AF91AE17B8F40E94AA064F
:10080400AE2FE32F0E94FF060E94B106E32FA42F10
:100814000E94FF06E095E1215E2B0E949106FA9367
:10082400EA93A52F0E944506E3CF2CC0E83011F4CB
:1008340050E003C0E930A9F45FEF0E94A006AE2F98
:10084400E32F0E94F7065E2F1F931F5FEE85AF9183
:10085400AE1730F40E94A4064A93A0E075DEF4CFEC
:1008640011C01F931F5FEE85AF91AE1758F40E941D
:10087400BC06AE2FE32F0E94F706EA934A93AD8598
:1008840063DEEFCFED85E03009F473C0AD85A830A9
:1008940028F4ED85E21B5E2FE0E003C0532FED85C5
:1008A400E850ED8710E0EF85E85FEF87E8E0E31BB1
:1008B4002E2F0889EA85FB85EE83FF83E52FF0E080
:1008C400E85CFD4F4491E985E530F1F41F931F5F27
:1008D400EE85AF91AE17B8F40E94AA06AE2FE22FB0
:1008E4000E94F7060E94B106E22FA42F0E94F70689
:1008F400E095E1215E2B0E949106FA93EA93A52FDD
:100904000E944506E3CF2CC0E83011F450E003C048
:10091400E930A9F45FEF0E94A006AE2FE22F0E94F7
:10092400FF065E2F1F931F5FEE85AF91AE1730F465
:100934000E94A4064A93A0E007DEF4CF11C01F93DF
:100944001F5FEE85AF91AE1758F40E94BC06AE2F20
:10095400E22F0E94FF06EA934A93AD85F5DDEFCFBF
:10096400E885AA85BB85F0E0EA0FFB1FEA87FB87D1
:10097400B6CE0E943B07619608950E94C9061CF0FA
:10098400E0E0F0E037C1A881B981A038E0E0BE071B
:100994001CF0EFE7F0E02EC1E881F9812BC10E9441
:1009A400C9061CF0E0E0F0E025C1A881B981A034BB
:1009B400E0E0BE071CF0EFE3F0E01CC1E881F98140
:1009C40019C1BA93AA9323970E94D0068F01002ECF
:1009D400012A19F4E0E0F0E058C00E94D7060F8223
:1009E4000E94D7060E820E94D7060886EB85A8854A
:1009F400EA1718F4E0E0F0E048C0F8010F5F1F4F79
:100A04005491E52FA885AE0FEB85EA1718F0E0E0C6
:100A1400F0E03BC0EE81E695E695E6954E2FEE813B
:100A2400E77009F04F5FEF81E03091F0A985BA8556
:100A3400EC93A885EB85EA1BF0E0DF01EF810E94CF
:100A44007B06DF01E42F0E947B06E00FF11F1DC02F
:100A54009801E52FF0E00E0F1F1FA885AF5FA88750
:100A6400A150EB85AE1758F4F9012F5F3F4FA491C5
:100A7400B0E0E42F0E947B060E0F1F1FEECFF9019A
:100A8400E491A985BA85EC93F8010E943B072C9662
:100A94000895E0E0E0936201A0916301BB270E9406
:100AA400DC060E947706E09167010E94770677DFF3
:100AB400E09363010895AA9321970E94D00630978A
:100AC40011F40C94BB05AF81AA3009F450C0EF8136
:100AD400EA93DE01179675DFAF01309709F44BC036
:100AE400E0916601AE81EA0F3E2FA0916201BB271F
:100AF400E32FF0E0EA0FFB1F8F010138E0E01E074F
:100B040018F0032F1127C5DFE0916201EA93E09109
:100B14006301EA93E885EA930E94DC06EA93E1E044
:100B2400EA935A934A93A6E04ADDE0916201AE81CA
:100B3400EA0FEA93E0916301EA93E0916601EA9394
:100B44000E94DC060E94E306E0916201EA93A09110
:100B540063010E94DC06EA0FEA933A93E09167018D
:100B64000E94E306E0E8F0E0E017F10711F491DFFA
:100B740002C0009362010E943B0728960895BA932D
:100B8400AA931A93EC81EA93AC810FD0E981FA819C
:100B94003196E983FA833197E4911E2FE03019F0FE
:100BA400A12F89DFF3CF18811AC0AA93A981BB278B
:100BB400E4DEE0936201A881BB27F1DEE0936301E8
:100BC40019C0BA93AA93B981A881109631F0FC8117
:100BD400EB816A8161931197E9F7EB81FC8125969A
:100BE4000895AA93E881F0E0E85CFD4FA491E981BF
:100BF4000E94F70622960895AA931A93E981E63093
:100C040011F0E93019F41091600109C0E83019F4C9
:100C14001091610104C0E730A1F410917001E091DA
:100C24006101E03049F0103019F0EFEF188129C06C
:100C3400EA81E095188125C0103019F4E0E01881AC
:100C440020C0EA8118811DC0BA93AA93EA81E130D9
:100C540021F4E881F981E49114C0E23029F4A881F7
:100C6400B9810E9413070DC0E33041F4A881B98112
:100C7400E0917901F0917A01099503C0A881B981C5
:100C8400EC9123960895AA93EB81E03029F4E8814E
:100C9400A981BA81EC9314C0E23031F4E881A981CE
:100CA400BA810E941F070CC0E33051F4E981FA8134
:100CB400FA93EA93AA81E0917B01F0917C01099572
:100CC400249608959198EFEFE4BBE881E5BB0E9478
:100CD40098010C949C01E695E695E695AE2F0C944C
:100CE400D9010E94FE010C94E901F0E0AE0FBF1F90
:100CF4000895F0E00E9407070895EA0FFB1FEE83B2
:100D0400FF830895EC85EA93EF81F8853196EF83AC
:100D1400F8873197FA93EA93A0E00C944506EC85A2
:100D2400EA93EF81F8853196EF83F8873197089538
:100D340066277727DF01CB010C9426065A93AA85F0
:100D44000C94FE050A930395E889EA935A9308954F
:100D54000A930395A8890E941002E42308955E2F44
:100D6400EC85EA93AF81B885882799270E942606E7
:100D74001E2E08950A930395E889EA93EE85EA9373
:100D8400E985FA853196E987FA873197D1CFBA9305
:100D9400AA93A881B9810E94300708950E9434075C
:100DA400E0916401F09165010895F8010F5F1F4F10
:100DB40004900895E0916401F09165013196E49105
:100DC4000895EA93E0E0EA93E0E0F0E0FA93EA932E
:100DD400A8E00C94E102109639F080ED97E00197B9
:100DE400F1F7A8951197C9F70895EE230E2EEA2F6F
:100DF40019F0EE0F0A94E9F70895EE230E2EEA2F68
:100E040019F0E6950A94E9F70895FA9FF02DEB9FFF
:100E1400F00DEA9FE02DF10D0895ED91FC911197ED
:100E24000895E199FECFFF93FFB7F894AEBBBFBB23
:100E3400E09AEDB3FFBFFF910895E19B02C0A8952E
:100E4400FCCF9FB7F894AEBBBFBBE09A8DB3E81755
:100E540019F0EDBBE29AE19A9FBF089500240A16A7
:100E64000B0608955A934A933A932A931A930A9332
:100E740008955D814C813B812A81198108810895FF
:00000001FF
