:060000000C943E000C947C
:1000060000000C9400000C9400000C9400000C946A
:1000160000000C9400000C9400000C9495000C94C5
:100026006B000C9400000C9400000C9400000C94DF
:1000360000000C9400000C9400000C9400000C943A
:1000460000000C9400000C9400000C9400000000CA
:10005600030003003F0006005B004F0066006D00D2
:100066007D0007007F006F000600060054001300A5
:1000760060015A000000F894EE27ECBBF1E0FBBFEC
:10008600EBBFE5BF8DE0A2E0BB27ED938A95E9F7CC
:1000960080E094E0A0E6ED930197E9F7EEE6F0E064
:1000A60085919591009761F0A591B5910590159070
:1000B600BF01F00105900D920197E1F7FB01F0CF2A
:1000C600EFE5EDBFE4E0EEBFC0E6D1E00C94D6006C
:1000D60085D0E5B3AFEFEA274E2E5524EFEFE425A2
:1000E600E5BBF50183D0A0E6B1E089D0EC91E2BB97
:1000F60055944794042C052819F4E8E0F0E02F0104
:10010600EFEF4E2645BA4E26F50131975F01EFEF28
:10011600FFEFEA15FB0519F4E3E0F0E05F01E0E02C
:10012600E2BF39C05BD0F30131963F01ECE2F1E06A
:10013600E615F70561F5AAE7B1E0ED91FD91319677
:10014600FE93EE93002480149004E4F0F4014ED064
:10015600EA30A0E0FA0791F4F4013197A4E7B1E0A0
:100166004ED0ED91FD913196FE93EE93F401A4E706
:10017600B1E045D0E0E0F0E0ED93FC93F401319777
:100186004F01E0CFE3E0F0E04F0166247724EFEF84
:10019600EDBDE0EFECBDE991EFBFF991E991B991C1
:1001A600A99109901895EFEFE1BBE0E0E2BBEFEF14
:1001B600E4BBEFEEE5BBE5E0E9BFE3BFE0E0E2BFAD
:1001C600ECBFEFBDE5E0EEBDEFEFEDBDE0EFECBD62
:1001D600E0E0E5BFE4BF7894FFCFFFCF0A92AA9391
:1001E600BA93EA93FA93EFB7EA930895A4E7B1E0D6
:1001F600EE0FFF1FAE0FBF1F0E9407010895EE0FFF
:10020600FF1FAE0FBF1F0895ED91FC911197089542
:00000001FF
