:020000000C945E
:100002003D000C9400000C9400000C9400000C9431
:1000120000000C9400000C9400000C9400000C945E
:100022006A000C9400000C9400000C9400000C94E4
:1000320000000C9400000C9400000C9400000C943E
:1000420000000C9400000C9400000C9400000C942E
:100052000000000000003F0006005B004F00660049
:100062006D007D0007007F006F0004000400540053
:100072001300600158000000F894EE27ECBBF1E099
:10008200FBBFEBBFE5BF8DE0A2E0BB27ED938A95F6
:10009200E9F780E094E0A0E6ED930197E9F7ECE65A
:1000A200F0E085919591009761F0A591B591059049
:1000B2001590BF01F00105900D920197E1F7FB0148
:1000C200F0CFEFE5EDBFE4E0EEBFC0E6D1E00C9487
:1000D2009600AA93BA93EA93FA93EFB7EA93F201DE
:1000E20031962F01E4E6F0E0E415F50599F4EAE033
:1000F200F0E06E167F0614F066247724F301A0E682
:10010200B1E0EE0FFF1FAE0FBF1FEC91E2BBF30198
:1001120031963F01EFEFEDBDE0EFECBDE991EFBFAE
:10012200F991E991B991A9911895EFEFE1BBE0E05E
:10013200E2BBEFBDE1E0EEBDEFEFEDBDE0EFECBD08
:10014200E4E0E9BFE0E0E5BFE4BF7894FFCFFFCF92
:00000001FF
